:08000000803102288731F92F3D
:100E1200790190110800873109278731080079018B
:100E2200120E890C01390800790192171914121750
:100E32000800790119101213921308007108F900C1
:100E42007008F8000800873148278731272F803142
:100E52000228603045018D008F0191010530930019
:100E620092010800730879019700720896007108D0
:100E7200940070089300080041010C100B1400301C
:100E8200F0000030F10087311F27873108008731D9
:100E92002A27873187315B2787318731C1278731FD
:100EA20087319727873187310C27873187313D2753
:100EB200873108004A018C130030F4000830F50035
:100EC20087317727873107304A01950099019801C8
:100ED20097019601410113101D1093109D101311DB
:100EE2001D1193119D114A018C1708007408663E6A
:100EF200F6000030753DF7007508F1007408F00047
:100F02007708F3007608F20087313327873187317B
:100F120015278731873110278731003A031D922F19
:100F2200932F8B2F87311A27873108007901A5016A
:100F32000730A6000730A7002508F3390838A500B6
:100F4200A401A301A201D530A100F330A505A4019B
:100F5200A301A201A101A0019F019E019D01FF30F9
:100F62009700FF309600940193019A0141018D1080
:100F720097100D1117117901A50110309200080088
:100F82004001980199019A0137309200F0309300A4
:100F9200FB30940017307D018C00F0309600F33066
:100FA200A00020308D0097010830A1008E01980129
:100FB200A20137308F00F0309900FF30A3001F30BC
:100FC2009000F0309A00F330A40013307C01D70077
:100FD2000530D80024307B019E007D0191019201F1
:100FE20093019B019C019D01A501A601A701080097
:100FF200F801F901FA01FB0140018731242F0000B9
:10100200000000000000000046011428400100001A
:1010120000000000000000000000000000001C3979
:10102200C009001C000000000000000000000000D9
:1010320000000A0040130A2800000000000000001F
:10104200000000000000000000000000000000009E
:10105200000000000000000000000000000000008E
:10106200000000000000000000000000000000007E
:10107200000000000000000000000000000000006E
:10108200000000000000000000000000000000005E
:10109200000000000000000000000000000000004E
:1010A2000000000000000000000121201F3CE103BD
:1010B2001F3CF0011F3EE0031F3EE1031F3C4000C6
:0A10C20000000000000000380000EC
:020000040001F9
:0A000E008C3FFF3F9F3FFF3FFF3F85
:00000001FF
